:020000020000FC
:0200000024C01A
:020004004AC0F0
:100048003AC0F89420E02093C5002FEC2093C40018
:1000580028E92093C10026E02093C200259A5298EF
:100068005A9A2FEF27B928B921E02DBB2AE020930F
:1000780069007894FFCF1091C00015FFFCCF309332
:10008800C60008951091C00017FFFCCF4091C6002C
:1000980008952D9AEF93FF93ECE6F2E00E94580042
:1000A800EF91FF912D9818953591303019F00E94F5
:1000B8003F00FACF08952D9A2F930E9446000E9480
:1000C80067002F91189540335FE379F1413356E08B
:1000D80061F142335BE549F143335FE431F1443385
:1000E80056E619F145335DE601F146335DE7E9F07F
:1000F800473357E0D1F048335FE7B9F049335FE65B
:10010800A1F0413657E789F042365CE771F0433693
:1001180059E359F044365EE541F0453659E729F090
:0E012800463651E711F050E401F058B9089541
:0C026C0057656C6C6572736F6E0A0A00B7
:00000001FF
